{
  "contractName": "drosToken",
  "abi": [
    {
      "inputs": [],
      "stateMutability": "nonpayable",
      "type": "constructor"
    },
    {
      "inputs": [],
      "name": "totalSupply",
      "outputs": [
        {
          "internalType": "uint256",
          "name": "",
          "type": "uint256"
        }
      ],
      "stateMutability": "view",
      "type": "function",
      "constant": true
    }
  ],
  "bytecode": "0x608060405234801561001057600080fd5b50620f424060008190555060b3806100296000396000f3fe6080604052348015600f57600080fd5b506004361060285760003560e01c806318160ddd14602d575b600080fd5b60336047565b604051603e9190605a565b60405180910390f35b60005481565b6054816073565b82525050565b6000602082019050606d6000830184604d565b92915050565b600081905091905056fea26469706673582212203ef38fb4f8c73c80cf21df3e158369a486795a0ce6837bc33bf3aadf7929991164736f6c63430008040033",
  "immutableReferences": {},
  "source": "pragma solidity ^0.8.4;\r\n\r\ncontract drosToken {\r\n    //constructor\r\n    //set the total number of tokens\r\n    //read the total number of tokens\r\n    uint256 public totalSupply;\r\n\r\n    constructor () public {\r\n        totalSupply = 1000000;\r\n    }\r\n}",
  "sourcePath": "C:/Users/Camron/Documents/dev/droscoin/token_sale/contracts/drosToken.sol",
  "compiler": {
    "name": "solc",
    "version": "0.8.4+commit.c7e474f2.Emscripten.clang"
  },
  "schemaVersion": "3.4.1",
  "updatedAt": "2021-05-29T15:53:59.137Z",
  "networkType": "ethereum",
  "devdoc": {
    "kind": "dev",
    "methods": {},
    "version": 1
  },
  "userdoc": {
    "kind": "user",
    "methods": {},
    "version": 1
  }
}